{
  "_format": "hh-sol-artifact-1",
  "contractName": "AgoraShareLedgerContract",
  "sourceName": "contracts/agoraShared3.sol",
  "abi": [
    {
      "inputs": [
        {
          "internalType": "address",
          "name": "_agoraNft",
          "type": "address"
        }
      ],
      "stateMutability": "nonpayable",
      "type": "constructor"
    },
    {
      "anonymous": false,
      "inputs": [
        {
          "indexed": true,
          "internalType": "address",
          "name": "sharer",
          "type": "address"
        },
        {
          "indexed": true,
          "internalType": "uint256",
          "name": "tokenId",
          "type": "uint256"
        },
        {
          "indexed": false,
          "internalType": "uint256",
          "name": "tokenQuanity",
          "type": "uint256"
        },
        {
          "indexed": false,
          "internalType": "uint256",
          "name": "priceInWei",
          "type": "uint256"
        },
        {
          "indexed": false,
          "internalType": "enum AgoraShareLedgerContract.Status",
          "name": "state",
          "type": "uint8"
        }
      ],
      "name": "AgoraShared",
      "type": "event"
    },
    {
      "anonymous": false,
      "inputs": [
        {
          "indexed": false,
          "internalType": "uint256",
          "name": "Id",
          "type": "uint256"
        },
        {
          "indexed": true,
          "internalType": "uint256",
          "name": "tokenId",
          "type": "uint256"
        },
        {
          "indexed": false,
          "internalType": "uint256",
          "name": "totalPrice",
          "type": "uint256"
        },
        {
          "indexed": false,
          "internalType": "uint256",
          "name": "amount",
          "type": "uint256"
        },
        {
          "indexed": true,
          "internalType": "address",
          "name": "owner",
          "type": "address"
        },
        {
          "indexed": true,
          "internalType": "address",
          "name": "buyer",
          "type": "address"
        }
      ],
      "name": "buyAgoraShared",
      "type": "event"
    },
    {
      "anonymous": false,
      "inputs": [
        {
          "indexed": false,
          "internalType": "uint256",
          "name": "_sharedId",
          "type": "uint256"
        },
        {
          "indexed": true,
          "internalType": "address",
          "name": "owner",
          "type": "address"
        },
        {
          "indexed": false,
          "internalType": "uint256",
          "name": "amountgained",
          "type": "uint256"
        }
      ],
      "name": "redeemAgoraShared",
      "type": "event"
    },
    {
      "inputs": [
        {
          "internalType": "uint256",
          "name": "_tokenId",
          "type": "uint256"
        },
        {
          "internalType": "uint256",
          "name": "amount",
          "type": "uint256"
        }
      ],
      "name": "buyShareinFilm",
      "outputs": [],
      "stateMutability": "payable",
      "type": "function"
    },
    {
      "inputs": [
        {
          "internalType": "uint256",
          "name": "_tokenId",
          "type": "uint256"
        },
        {
          "internalType": "uint256",
          "name": "amount",
          "type": "uint256"
        }
      ],
      "name": "buyShareinFilmWithCall",
      "outputs": [],
      "stateMutability": "payable",
      "type": "function"
    },
    {
      "inputs": [
        {
          "internalType": "uint256",
          "name": "_tokenId",
          "type": "uint256"
        },
        {
          "internalType": "uint256",
          "name": "buyOutAmount",
          "type": "uint256"
        }
      ],
      "name": "distribution",
      "outputs": [],
      "stateMutability": "nonpayable",
      "type": "function"
    },
    {
      "inputs": [
        {
          "internalType": "uint16",
          "name": "_tokenId",
          "type": "uint16"
        }
      ],
      "name": "getAuthorizeViewing",
      "outputs": [
        {
          "internalType": "bool",
          "name": "",
          "type": "bool"
        }
      ],
      "stateMutability": "view",
      "type": "function"
    },
    {
      "inputs": [
        {
          "internalType": "uint256",
          "name": "_tokenId",
          "type": "uint256"
        }
      ],
      "name": "getFilmInvestors",
      "outputs": [
        {
          "internalType": "address[]",
          "name": "",
          "type": "address[]"
        },
        {
          "internalType": "uint256[]",
          "name": "",
          "type": "uint256[]"
        }
      ],
      "stateMutability": "nonpayable",
      "type": "function"
    },
    {
      "inputs": [
        {
          "internalType": "uint256",
          "name": "_tokenId",
          "type": "uint256"
        }
      ],
      "name": "getInvestmentStatus",
      "outputs": [
        {
          "internalType": "uint256",
          "name": "",
          "type": "uint256"
        }
      ],
      "stateMutability": "view",
      "type": "function"
    },
    {
      "inputs": [],
      "name": "getNFTAddress",
      "outputs": [
        {
          "internalType": "address",
          "name": "",
          "type": "address"
        }
      ],
      "stateMutability": "view",
      "type": "function"
    },
    {
      "inputs": [
        {
          "internalType": "uint256",
          "name": "_tokenId",
          "type": "uint256"
        }
      ],
      "name": "getSharedDropStruct",
      "outputs": [
        {
          "internalType": "address",
          "name": "",
          "type": "address"
        },
        {
          "internalType": "uint256",
          "name": "",
          "type": "uint256"
        },
        {
          "internalType": "uint256",
          "name": "",
          "type": "uint256"
        },
        {
          "internalType": "uint256",
          "name": "",
          "type": "uint256"
        },
        {
          "internalType": "uint256",
          "name": "",
          "type": "uint256"
        },
        {
          "internalType": "uint256",
          "name": "",
          "type": "uint256"
        },
        {
          "internalType": "uint256",
          "name": "",
          "type": "uint256"
        }
      ],
      "stateMutability": "view",
      "type": "function"
    },
    {
      "inputs": [
        {
          "internalType": "uint256",
          "name": "_tokenId",
          "type": "uint256"
        },
        {
          "internalType": "uint256",
          "name": "amount",
          "type": "uint256"
        }
      ],
      "name": "getToBuy",
      "outputs": [
        {
          "internalType": "uint256",
          "name": "",
          "type": "uint256"
        }
      ],
      "stateMutability": "view",
      "type": "function"
    },
    {
      "inputs": [
        {
          "internalType": "uint256",
          "name": "_tokenId",
          "type": "uint256"
        }
      ],
      "name": "getTokenOwner",
      "outputs": [
        {
          "internalType": "address",
          "name": "",
          "type": "address"
        }
      ],
      "stateMutability": "view",
      "type": "function"
    },
    {
      "inputs": [
        {
          "internalType": "uint256",
          "name": "_tokenId",
          "type": "uint256"
        }
      ],
      "name": "releaseSale",
      "outputs": [],
      "stateMutability": "nonpayable",
      "type": "function"
    },
    {
      "inputs": [
        {
          "internalType": "uint256",
          "name": "_tokenId",
          "type": "uint256"
        },
        {
          "internalType": "uint256",
          "name": "numberOfTokens",
          "type": "uint256"
        },
        {
          "internalType": "uint256",
          "name": "equityOffered",
          "type": "uint256"
        },
        {
          "internalType": "uint256",
          "name": "raiseAmount",
          "type": "uint256"
        }
      ],
      "name": "shareAgoraNft",
      "outputs": [],
      "stateMutability": "nonpayable",
      "type": "function"
    }
  ],
  "bytecode": "0x608060405234801561001057600080fd5b5060405161131838038061131883398101604081905261002f9161006b565b60068054610100600160a81b0319166101006001600160a01b0393909316928302179055600780546001600160a01b0319169091179055610099565b60006020828403121561007c578081fd5b81516001600160a01b0381168114610092578182fd5b9392505050565b611270806100a86000396000f3fe6080604052600436106100a75760003560e01c8063a5cd761f11610064578063a5cd761f14610177578063b00a7cf6146101af578063b1f46542146101cf578063b961847814610273578063e2adc73414610297578063f3061463146102cf576100a7565b80630e49de1b146100ac578063252cb2ce146100c157806327181f2f146100e157806378a6d255146101145780638f5e532b14610127578063939bf99a14610147575b600080fd5b6100bf6100ba366004610ffa565b6102fd565b005b3480156100cd57600080fd5b506100bf6100dc366004610fe2565b6104fc565b3480156100ed57600080fd5b506101016100fc366004610ffa565b61055e565b6040519081526020015b60405180910390f35b6100bf610122366004610ffa565b610585565b34801561013357600080fd5b506100bf61014236600461101b565b61080f565b34801561015357600080fd5b50610167610162366004610fc0565b610b6e565b604051901515815260200161010b565b34801561018357600080fd5b50610197610192366004610fe2565b610ba4565b6040516001600160a01b03909116815260200161010b565b3480156101bb57600080fd5b506100bf6101ca366004610ffa565b610c27565b3480156101db57600080fd5b506102346101ea366004610fe2565b600090815260046020819052604090912080546003820154600183015460028401546006850154600586015495909601546001600160a01b03909416969295919490939192909190565b604080516001600160a01b0390981688526020880196909652948601939093526060850191909152608084015260a083015260c082015260e00161010b565b34801561027f57600080fd5b5061019760065461010090046001600160a01b031690565b3480156102a357600080fd5b506101016102b2366004610fe2565b600090815260026020908152604080832033845290915290205490565b3480156102db57600080fd5b506102ef6102ea366004610fe2565b610dff565b60405161010b92919061104c565b60008281526004602081905260408220015461031a9083906111d3565b90506000808481526004602052604090206008015460ff16600181111561035157634e487b7160e01b600052602160045260246000fd5b1461038e5760405162461bcd60e51b8152602060048201526008602482015267726576657274203160c01b60448201526064015b60405180910390fd5b803410156103de5760405162461bcd60e51b815260206004820152601b60248201527f796f7520646f6e2774206861766520656e6f756768206d6f6e657900000000006044820152606401610385565b600083815260046020526040902060010154821061040e5760405162461bcd60e51b815260040161038590611115565b60008381526004602052604090206001015461043c5760405162461bcd60e51b8152600401610385906110cf565b6000838152600460205260408120600101805484929061045d9084906111f2565b90915550506000838152600460205260408120600201805484929061048390849061119b565b9091555050600083815260046020526040812060070180548392906104a990849061119b565b9091555050506000828152600260209081526040808320338085529083528184209490945593825260038152928120805460018101825590825292902090910180546001600160a01b0319169091179055565b6000818152600460205260409020546001600160a01b0316331461054e5760405162461bcd60e51b81526020600482015260096024820152683737ba1037bbb732b960b91b6044820152606401610385565b506006805460ff19166001179055565b600082815260046020819052604082200154819061057d9084906111d3565b949350505050565b6000828152600460208190526040822001546105a29083906111d3565b90506000808481526004602052604090206008015460ff1660018111156105d957634e487b7160e01b600052602160045260246000fd5b146106115760405162461bcd60e51b8152602060048201526008602482015267726576657274203160c01b6044820152606401610385565b803410156106615760405162461bcd60e51b815260206004820152601b60248201527f796f7520646f6e2774206861766520656e6f756768206d6f6e657900000000006044820152606401610385565b60008381526004602052604090206001015482106106915760405162461bcd60e51b815260040161038590611115565b6000838152600460205260409020600101546106bf5760405162461bcd60e51b8152600401610385906110cf565b604051600090309083908381818185875af1925050503d8060008114610701576040519150601f19603f3d011682016040523d82523d6000602084013e610706565b606091505b505090508061074e5760405162461bcd60e51b81526020600482015260146024820152732330b4b632b2103a379039b2b7321022ba3432b960611b6044820152606401610385565b6000848152600460205260408120600101805485929061076f9084906111f2565b90915550506000848152600460205260408120600201805485929061079590849061119b565b9091555050600084815260046020526040812060070180548492906107bb90849061119b565b9091555050506000838152600260209081526040808320338085529083528184209590955594825260038152938120805460018101825590825293902090920180546001600160a01b031916909117905550565b6064821061085f5760405162461bcd60e51b815260206004820152601a60248201527f63616e2774206f66666572206d6f7265207468616e20313030250000000000006044820152606401610385565b600182116108af5760405162461bcd60e51b815260206004820152601860248201527f6e65656420746f20627579206d6f7265207468616e20312500000000000000006044820152606401610385565b6007546040516331a9108f60e11b8152600481018690526001600160a01b0390911690636352211e9060240160206040518083038186803b1580156108f357600080fd5b505afa158015610907573d6000803e3d6000fd5b505050506040513d601f19601f8201168201806040525081019061092b9190610f92565b6001600160a01b0316336001600160a01b0316146109775760405162461bcd60e51b81526020600482015260096024820152683737ba1037bbb732b960b91b6044820152606401610385565b60408051610120810190915233815260009060208101606461099986886111d3565b6109a391906111b3565b8152600060208201526040810187905260600160646109c286886111d3565b6109cc91906111b3565b6109d690856111b3565b81526020018581526020018481526020016000815260200160006001811115610a0f57634e487b7160e01b600052602160045260246000fd5b9052600086815260046020818152604092839020845181546001600160a01b0319166001600160a01b03909116178155908401516001808301919091559284015160028201556060840151600382015560808401519181019190915560a0830151600582015560c0830151600682015560e08301516007820155610100830151600882018054949550859492939192909160ff19909116908381811115610ac657634e487b7160e01b600052602160045260246000fd5b021790555060649150610adb905084866111d3565b610ae591906111b3565b610aef90856111f2565b60008681526002602090815260408083203384528252918290209290925560608301518351928401516080850151610100860151935192946001600160a01b0316937f4daef0c1a6fdd462d6e36ca9a9ac81ac5d094e0eac93de22bf20c38162c46b1593610b5f93929190611161565b60405180910390a35050505050565b61ffff811660009081526002602090815260408083203384529091528120548015610b9d576001915050610b9f565b505b919050565b6007546040516331a9108f60e11b8152600481018390526000916001600160a01b031690636352211e9060240160206040518083038186803b158015610be957600080fd5b505afa158015610bfd573d6000803e3d6000fd5b505050506040513d601f19601f82011682018060405250810190610c219190610f92565b92915050565b60065460ff161515600114610c7e5760405162461bcd60e51b815260206004820152601d60248201527f746f6b656e73206e6f7420617661696c61626c6520666f722073616c650000006044820152606401610385565b6000828152600260209081526040808320338452909152902054610cd65760405162461bcd60e51b815260206004820152600f60248201526e3737ba1030b71034b73b32b9ba37b960891b6044820152606401610385565b600082815260046020526040812060050154610cf290836111b3565b905060005b600084815260036020526040902054811015610dbe576000848152600360205260408120805483908110610d3b57634e487b7160e01b600052603260045260246000fd5b6000918252602080832091909101548783526002825260408084206001600160a01b039092168085529190925290822080549290559150816108fc610d8083876111d3565b6040518115909202916000818181858888f19350505050158015610da8573d6000803e3d6000fd5b5050508080610db690611209565b915050610cf7565b50604080518481526020810184905233917fdcc627af5f6b4ec97707285fdbc2197e084f05219ce6e35ccc1e9a1b9f6795d0910160405180910390a2505050565b6060806000610e0d84610f26565b905060005b600085815260036020526040902054811015610ec6576000858152600360205260408120805483908110610e5657634e487b7160e01b600052603260045260246000fd5b60009182526020808320909101548883526002825260408084206001600160a01b03909216845291528120546005805460018101825592527f036b6384b5eca791c62761152d0c79bb0604c104a5fb6f4eb0703f3154bb3db0909101555080610ebe81611209565b915050610e12565b5080600580805480602002602001604051908101604052809291908181526020018280548015610f1557602002820191906000526020600020905b815481526020019060010190808311610f01575b505050505090509250925050915091565b600081815260036020908152604091829020805483518184028101840190945280845260609392830182828015610f8657602002820191906000526020600020905b81546001600160a01b03168152600190910190602001808311610f68575b50505050509050919050565b600060208284031215610fa3578081fd5b81516001600160a01b0381168114610fb9578182fd5b9392505050565b600060208284031215610fd1578081fd5b813561ffff81168114610fb9578182fd5b600060208284031215610ff3578081fd5b5035919050565b6000806040838503121561100c578081fd5b50508035926020909101359150565b60008060008060808587031215611030578182fd5b5050823594602084013594506040840135936060013592509050565b604080825283519082018190526000906020906060840190828701845b8281101561108e5781516001600160a01b031684529284019290840190600101611069565b50505083810382850152845180825285830191830190845b818110156110c2578351835292840192918401916001016110a6565b5090979650505050505050565b60208082526026908201527f7468657265206d69676874206265206e6f206d6f726520746f6b656e73206c656040820152650cce840745a560d31b606082015260800190565b6020808252602c908201527f596f752061726520747279696e6720746f20627579206d6f726520746f6b656e60408201526b1cc81d1a185b88195e1a5cdd60a21b606082015260800190565b83815260208101839052606081016002831061118d57634e487b7160e01b600052602160045260246000fd5b826040830152949350505050565b600082198211156111ae576111ae611224565b500190565b6000826111ce57634e487b7160e01b81526012600452602481fd5b500490565b60008160001904831182151516156111ed576111ed611224565b500290565b60008282101561120457611204611224565b500390565b600060001982141561121d5761121d611224565b5060010190565b634e487b7160e01b600052601160045260246000fdfea26469706673582212209296b02943e835ed2787ae1e5a6161d45515ec04f1080afe8ab0ee4d5eefa5cc64736f6c63430008030033",
  "linkReferences": {},
  "deployedLinkReferences": {}
}