{
  "_format": "hh-sol-artifact-1",
  "contractName": "Agora",
  "sourceName": "contracts/agora.sol",
  "abi": [
    {
      "inputs": [],
      "stateMutability": "nonpayable",
      "type": "constructor"
    },
    {
      "anonymous": false,
      "inputs": [
        {
          "indexed": true,
          "internalType": "address",
          "name": "owner",
          "type": "address"
        },
        {
          "indexed": true,
          "internalType": "address",
          "name": "approved",
          "type": "address"
        },
        {
          "indexed": true,
          "internalType": "uint256",
          "name": "tokenId",
          "type": "uint256"
        }
      ],
      "name": "Approval",
      "type": "event"
    },
    {
      "anonymous": false,
      "inputs": [
        {
          "indexed": true,
          "internalType": "address",
          "name": "owner",
          "type": "address"
        },
        {
          "indexed": true,
          "internalType": "address",
          "name": "operator",
          "type": "address"
        },
        {
          "indexed": false,
          "internalType": "bool",
          "name": "approved",
          "type": "bool"
        }
      ],
      "name": "ApprovalForAll",
      "type": "event"
    },
    {
      "anonymous": false,
      "inputs": [
        {
          "indexed": true,
          "internalType": "uint256",
          "name": "tokenId",
          "type": "uint256"
        },
        {
          "indexed": false,
          "internalType": "string",
          "name": "hash",
          "type": "string"
        }
      ],
      "name": "CreatedAgora",
      "type": "event"
    },
    {
      "anonymous": false,
      "inputs": [
        {
          "indexed": true,
          "internalType": "address",
          "name": "previousOwner",
          "type": "address"
        },
        {
          "indexed": true,
          "internalType": "address",
          "name": "newOwner",
          "type": "address"
        }
      ],
      "name": "OwnershipTransferred",
      "type": "event"
    },
    {
      "anonymous": false,
      "inputs": [
        {
          "indexed": true,
          "internalType": "address",
          "name": "from",
          "type": "address"
        },
        {
          "indexed": true,
          "internalType": "address",
          "name": "to",
          "type": "address"
        },
        {
          "indexed": true,
          "internalType": "uint256",
          "name": "tokenId",
          "type": "uint256"
        }
      ],
      "name": "Transfer",
      "type": "event"
    },
    {
      "inputs": [
        {
          "internalType": "address",
          "name": "to",
          "type": "address"
        },
        {
          "internalType": "uint256",
          "name": "tokenId",
          "type": "uint256"
        }
      ],
      "name": "approve",
      "outputs": [],
      "stateMutability": "nonpayable",
      "type": "function"
    },
    {
      "inputs": [
        {
          "internalType": "address",
          "name": "NFTAddress",
          "type": "address"
        },
        {
          "internalType": "uint256",
          "name": "tokenID",
          "type": "uint256"
        }
      ],
      "name": "approveTokenTransfer",
      "outputs": [],
      "stateMutability": "nonpayable",
      "type": "function"
    },
    {
      "inputs": [
        {
          "internalType": "address",
          "name": "owner",
          "type": "address"
        }
      ],
      "name": "balanceOf",
      "outputs": [
        {
          "internalType": "uint256",
          "name": "",
          "type": "uint256"
        }
      ],
      "stateMutability": "view",
      "type": "function"
    },
    {
      "inputs": [
        {
          "internalType": "string",
          "name": "hash",
          "type": "string"
        }
      ],
      "name": "baseTokenURI",
      "outputs": [
        {
          "internalType": "string",
          "name": "",
          "type": "string"
        }
      ],
      "stateMutability": "pure",
      "type": "function"
    },
    {
      "inputs": [
        {
          "internalType": "string",
          "name": "metadataURL",
          "type": "string"
        }
      ],
      "name": "create",
      "outputs": [
        {
          "internalType": "uint256",
          "name": "",
          "type": "uint256"
        },
        {
          "internalType": "string",
          "name": "",
          "type": "string"
        }
      ],
      "stateMutability": "nonpayable",
      "type": "function"
    },
    {
      "inputs": [
        {
          "internalType": "string",
          "name": "URI",
          "type": "string"
        }
      ],
      "name": "formatTokenURI",
      "outputs": [
        {
          "internalType": "string",
          "name": "",
          "type": "string"
        }
      ],
      "stateMutability": "pure",
      "type": "function"
    },
    {
      "inputs": [],
      "name": "getAllMovies",
      "outputs": [
        {
          "components": [
            {
              "internalType": "uint256",
              "name": "tokenID",
              "type": "uint256"
            },
            {
              "internalType": "string",
              "name": "metadataURL",
              "type": "string"
            }
          ],
          "internalType": "struct Agora.Film[]",
          "name": "",
          "type": "tuple[]"
        }
      ],
      "stateMutability": "view",
      "type": "function"
    },
    {
      "inputs": [
        {
          "internalType": "uint256",
          "name": "tokenId",
          "type": "uint256"
        }
      ],
      "name": "getApproved",
      "outputs": [
        {
          "internalType": "address",
          "name": "",
          "type": "address"
        }
      ],
      "stateMutability": "view",
      "type": "function"
    },
    {
      "inputs": [
        {
          "internalType": "uint256",
          "name": "tokenID",
          "type": "uint256"
        }
      ],
      "name": "getOneMovie",
      "outputs": [
        {
          "internalType": "string",
          "name": "",
          "type": "string"
        }
      ],
      "stateMutability": "view",
      "type": "function"
    },
    {
      "inputs": [],
      "name": "imageURI",
      "outputs": [
        {
          "internalType": "string",
          "name": "",
          "type": "string"
        }
      ],
      "stateMutability": "view",
      "type": "function"
    },
    {
      "inputs": [
        {
          "internalType": "address",
          "name": "owner",
          "type": "address"
        },
        {
          "internalType": "address",
          "name": "operator",
          "type": "address"
        }
      ],
      "name": "isApprovedForAll",
      "outputs": [
        {
          "internalType": "bool",
          "name": "",
          "type": "bool"
        }
      ],
      "stateMutability": "view",
      "type": "function"
    },
    {
      "inputs": [],
      "name": "name",
      "outputs": [
        {
          "internalType": "string",
          "name": "",
          "type": "string"
        }
      ],
      "stateMutability": "view",
      "type": "function"
    },
    {
      "inputs": [],
      "name": "owner",
      "outputs": [
        {
          "internalType": "address",
          "name": "",
          "type": "address"
        }
      ],
      "stateMutability": "view",
      "type": "function"
    },
    {
      "inputs": [
        {
          "internalType": "uint256",
          "name": "tokenId",
          "type": "uint256"
        }
      ],
      "name": "ownerOf",
      "outputs": [
        {
          "internalType": "address",
          "name": "",
          "type": "address"
        }
      ],
      "stateMutability": "view",
      "type": "function"
    },
    {
      "inputs": [],
      "name": "renounceOwnership",
      "outputs": [],
      "stateMutability": "nonpayable",
      "type": "function"
    },
    {
      "inputs": [
        {
          "internalType": "address",
          "name": "from",
          "type": "address"
        },
        {
          "internalType": "address",
          "name": "to",
          "type": "address"
        },
        {
          "internalType": "uint256",
          "name": "tokenId",
          "type": "uint256"
        }
      ],
      "name": "safeTransferFrom",
      "outputs": [],
      "stateMutability": "nonpayable",
      "type": "function"
    },
    {
      "inputs": [
        {
          "internalType": "address",
          "name": "from",
          "type": "address"
        },
        {
          "internalType": "address",
          "name": "to",
          "type": "address"
        },
        {
          "internalType": "uint256",
          "name": "tokenId",
          "type": "uint256"
        },
        {
          "internalType": "bytes",
          "name": "_data",
          "type": "bytes"
        }
      ],
      "name": "safeTransferFrom",
      "outputs": [],
      "stateMutability": "nonpayable",
      "type": "function"
    },
    {
      "inputs": [
        {
          "internalType": "address",
          "name": "operator",
          "type": "address"
        },
        {
          "internalType": "bool",
          "name": "approved",
          "type": "bool"
        }
      ],
      "name": "setApprovalForAll",
      "outputs": [],
      "stateMutability": "nonpayable",
      "type": "function"
    },
    {
      "inputs": [
        {
          "internalType": "bytes4",
          "name": "interfaceId",
          "type": "bytes4"
        }
      ],
      "name": "supportsInterface",
      "outputs": [
        {
          "internalType": "bool",
          "name": "",
          "type": "bool"
        }
      ],
      "stateMutability": "view",
      "type": "function"
    },
    {
      "inputs": [],
      "name": "symbol",
      "outputs": [
        {
          "internalType": "string",
          "name": "",
          "type": "string"
        }
      ],
      "stateMutability": "view",
      "type": "function"
    },
    {
      "inputs": [],
      "name": "tokenCounter",
      "outputs": [
        {
          "internalType": "uint256",
          "name": "",
          "type": "uint256"
        }
      ],
      "stateMutability": "view",
      "type": "function"
    },
    {
      "inputs": [
        {
          "internalType": "uint256",
          "name": "tokenId",
          "type": "uint256"
        }
      ],
      "name": "tokenURI",
      "outputs": [
        {
          "internalType": "string",
          "name": "",
          "type": "string"
        }
      ],
      "stateMutability": "view",
      "type": "function"
    },
    {
      "inputs": [
        {
          "internalType": "address",
          "name": "from",
          "type": "address"
        },
        {
          "internalType": "address",
          "name": "to",
          "type": "address"
        },
        {
          "internalType": "uint256",
          "name": "tokenId",
          "type": "uint256"
        }
      ],
      "name": "transferFrom",
      "outputs": [],
      "stateMutability": "nonpayable",
      "type": "function"
    },
    {
      "inputs": [
        {
          "internalType": "address",
          "name": "newOwner",
          "type": "address"
        }
      ],
      "name": "transferOwnership",
      "outputs": [],
      "stateMutability": "nonpayable",
      "type": "function"
    }
  ],
  "bytecode": "0x60806040523480156200001157600080fd5b5060408051808201825260098152681059dbdc984813919560ba1b602080830191825283518085019094526002845261616760f01b9084015281519192916200005d91600091620000f1565b50805162000073906001906020840190620000f1565b505050620000906200008a6200009b60201b60201c565b6200009f565b6000600855620001d4565b3390565b600780546001600160a01b038381166001600160a01b0319831681179093556040519116919082907f8be0079c531659141344cd1fd0a4f28419497f9722a3daafe3b4186f6b6457e090600090a35050565b828054620000ff9062000197565b90600052602060002090601f0160209004810192826200012357600085556200016e565b82601f106200013e57805160ff19168380011785556200016e565b828001600101855582156200016e579182015b828111156200016e57825182559160200191906001019062000151565b506200017c92915062000180565b5090565b5b808211156200017c576000815560010162000181565b600181811c90821680620001ac57607f821691505b60208210811415620001ce57634e487b7160e01b600052602260045260246000fd5b50919050565b6121f880620001e46000396000f3fe608060405234801561001057600080fd5b50600436106101585760003560e01c806395d89b41116100c3578063d082e3811161007c578063d082e381146102dd578063e16f0065146102e6578063e3a25c32146102fb578063e985e9c51461030e578063f2fde38b1461034a578063ff6a3fc81461035d57610158565b806395d89b4114610268578063a05cc55914610270578063a22cb46514610283578063b6a46b3b14610296578063b88d4fde146102b7578063c87b56dd146102ca57610158565b806342842e0e1161011557806342842e0e146101f55780636352211e1461020857806370a082311461021b578063715018a61461023c57806371aee193146102445780638da5cb5b1461025757610158565b806301ffc9a71461015d57806306fdde0314610185578063081812fc1461019a578063095ea7b3146101c5578063135d088d146101da57806323b872dd146101e2575b600080fd5b61017061016b366004611c5f565b610370565b60405190151581526020015b60405180910390f35b61018d6103c4565b60405161017c9190611f13565b6101ad6101a8366004611cdd565b610456565b6040516001600160a01b03909116815260200161017c565b6101d86101d3366004611c36565b6104e3565b005b61018d6105f9565b6101d86101f0366004611b48565b610687565b6101d8610203366004611b48565b6106b8565b6101ad610216366004611cdd565b6106d3565b61022e610229366004611afc565b61074a565b60405190815260200161017c565b6101d86107d1565b61018d610252366004611c97565b610807565b6007546001600160a01b03166101ad565b61018d610830565b61018d61027e366004611c97565b61083f565b6101d8610291366004611bfc565b610852565b6102a96102a4366004611c97565b610924565b60405161017c929190612078565b6101d86102c5366004611b83565b610c22565b61018d6102d8366004611cdd565b610c5a565b61022e60085481565b6102ee610dd2565b60405161017c9190611ea0565b6101d8610309366004611c36565b610ecd565b61017061031c366004611b16565b6001600160a01b03918216600090815260056020908152604080832093909416825291909152205460ff1690565b6101d8610358366004611afc565b610f05565b61018d61036b366004611cdd565b610fa0565b60006001600160e01b031982166380ac58cd60e01b14806103a157506001600160e01b03198216635b5e139f60e01b145b806103bc57506301ffc9a760e01b6001600160e01b03198316145b90505b919050565b6060600080546103d390612100565b80601f01602080910402602001604051908101604052809291908181526020018280546103ff90612100565b801561044c5780601f106104215761010080835404028352916020019161044c565b820191906000526020600020905b81548152906001019060200180831161042f57829003601f168201915b5050505050905090565b600061046182611045565b6104c75760405162461bcd60e51b815260206004820152602c60248201527f4552433732313a20617070726f76656420717565727920666f72206e6f6e657860448201526b34b9ba32b73a103a37b5b2b760a11b60648201526084015b60405180910390fd5b506000908152600460205260409020546001600160a01b031690565b60006104ee826106d3565b9050806001600160a01b0316836001600160a01b0316141561055c5760405162461bcd60e51b815260206004820152602160248201527f4552433732313a20617070726f76616c20746f2063757272656e74206f776e656044820152603960f91b60648201526084016104be565b336001600160a01b03821614806105785750610578813361031c565b6105ea5760405162461bcd60e51b815260206004820152603860248201527f4552433732313a20617070726f76652063616c6c6572206973206e6f74206f7760448201527f6e6572206e6f7220617070726f76656420666f7220616c6c000000000000000060648201526084016104be565b6105f48383611062565b505050565b6009805461060690612100565b80601f016020809104026020016040519081016040528092919081815260200182805461063290612100565b801561067f5780601f106106545761010080835404028352916020019161067f565b820191906000526020600020905b81548152906001019060200180831161066257829003601f168201915b505050505081565b61069133826110d0565b6106ad5760405162461bcd60e51b81526004016104be90612027565b6105f48383836111b6565b6105f483838360405180602001604052806000815250610c22565b6000818152600260205260408120546001600160a01b0316806103bc5760405162461bcd60e51b815260206004820152602960248201527f4552433732313a206f776e657220717565727920666f72206e6f6e657869737460448201526832b73a103a37b5b2b760b91b60648201526084016104be565b60006001600160a01b0382166107b55760405162461bcd60e51b815260206004820152602a60248201527f4552433732313a2062616c616e636520717565727920666f7220746865207a65604482015269726f206164647265737360b01b60648201526084016104be565b506001600160a01b031660009081526003602052604090205490565b6007546001600160a01b031633146107fb5760405162461bcd60e51b81526004016104be90611ff2565b6108056000611356565b565b60608160405160200161081a9190611d50565b6040516020818303038152906040529050919050565b6060600180546103d390612100565b60608160405160200161081a9190611df8565b6001600160a01b0382163314156108ab5760405162461bcd60e51b815260206004820152601960248201527f4552433732313a20617070726f766520746f2063616c6c65720000000000000060448201526064016104be565b3360008181526005602090815260408083206001600160a01b0387168085529252909120805460ff1916841515179055906001600160a01b03167f17307eab39ab6107e8899845ad3d59bd9653f200f220920489ca2b5937696c3183604051610918911515815260200190565b60405180910390a35050565b60006060610934336008546113a8565b6109606040518060400160405280600a81526020016936b9b39739b2b73232b960b11b815250336113c2565b61098b604051806040016040528060078152602001661d1bdad95b925960ca1b815250600854611407565b610a3f60405180604001604052806008815260200167696d61676555524960c01b815250600980546109bc90612100565b80601f01602080910402602001604051908101604052809291908181526020018280546109e890612100565b8015610a355780601f10610a0a57610100808354040283529160200191610a35565b820191906000526020600020905b815481529060010190602001808311610a1857829003601f168201915b505050505061144c565b610a488361083f565b8051610a5c916009916020909101906119d6565b50610afb600854610af660098054610a7390612100565b80601f0160208091040260200160405190810160405280929190818152602001828054610a9f90612100565b8015610aec5780601f10610ac157610100808354040283529160200191610aec565b820191906000526020600020905b815481529060010190602001808311610acf57829003601f168201915b5050505050610807565b611491565b60408051808201825260085480825260208083018781526000928352600a8252939091208251815592518051929392610b3a92600185019201906119d6565b50506040805180820190915260085481526020808201868152600b8054600181018255600091909152835160029091027f0175b7a638427703f0dbe7bb9bbf987a2551717b34e79f33b5b1008d1fa01db98101918255915180519495509093610bcc937f0175b7a638427703f0dbe7bb9bbf987a2551717b34e79f33b5b1008d1fa01dba9093019291909101906119d6565b5050600854610bdd91506001612091565b60088190556040517f77608b8a7180221d4c4c62b013b9795d3fe99b6f1f701be3e6850603ee55177a90610c12908690611f13565b60405180910390a2505060085491565b610c2c33836110d0565b610c485760405162461bcd60e51b81526004016104be90612027565b610c548484848461151c565b50505050565b6060610c6582611045565b610ccb5760405162461bcd60e51b815260206004820152603160248201527f45524337323155524953746f726167653a2055524920717565727920666f72206044820152703737b732bc34b9ba32b73a103a37b5b2b760791b60648201526084016104be565b60008281526006602052604081208054610ce490612100565b80601f0160208091040260200160405190810160405280929190818152602001828054610d1090612100565b8015610d5d5780601f10610d3257610100808354040283529160200191610d5d565b820191906000526020600020905b815481529060010190602001808311610d4057829003601f168201915b505050505090506000610d7b60408051602081019091526000815290565b9050805160001415610d8f575090506103bf565b815115610dc1578082604051602001610da9929190611d21565b604051602081830303815290604052925050506103bf565b610dca8461154f565b949350505050565b6060600b805480602002602001604051908101604052809291908181526020016000905b82821015610ec4578382906000526020600020906002020160405180604001604052908160008201548152602001600182018054610e3390612100565b80601f0160208091040260200160405190810160405280929190818152602001828054610e5f90612100565b8015610eac5780601f10610e8157610100808354040283529160200191610eac565b820191906000526020600020905b815481529060010190602001808311610e8f57829003601f168201915b50505050508152505081526020019060010190610df6565b50505050905090565b6007546001600160a01b03163314610ef75760405162461bcd60e51b81526004016104be90611ff2565b610f0182826104e3565b5050565b6007546001600160a01b03163314610f2f5760405162461bcd60e51b81526004016104be90611ff2565b6001600160a01b038116610f945760405162461bcd60e51b815260206004820152602660248201527f4f776e61626c653a206e6577206f776e657220697320746865207a65726f206160448201526564647265737360d01b60648201526084016104be565b610f9d81611356565b50565b6000818152600a60205260409020600101805460609190610fc090612100565b80601f0160208091040260200160405190810160405280929190818152602001828054610fec90612100565b80156110395780601f1061100e57610100808354040283529160200191611039565b820191906000526020600020905b81548152906001019060200180831161101c57829003601f168201915b50505050509050919050565b6000908152600260205260409020546001600160a01b0316151590565b600081815260046020526040902080546001600160a01b0319166001600160a01b0384169081179091558190611097826106d3565b6001600160a01b03167f8c5be1e5ebec7d5bd14f71427d1e84f3dd0314c0f7b2291e5b200ac8c7c3b92560405160405180910390a45050565b60006110db82611045565b61113c5760405162461bcd60e51b815260206004820152602c60248201527f4552433732313a206f70657261746f7220717565727920666f72206e6f6e657860448201526b34b9ba32b73a103a37b5b2b760a11b60648201526084016104be565b6000611147836106d3565b9050806001600160a01b0316846001600160a01b031614806111825750836001600160a01b031661117784610456565b6001600160a01b0316145b80610dca57506001600160a01b0380821660009081526005602090815260408083209388168352929052205460ff16610dca565b826001600160a01b03166111c9826106d3565b6001600160a01b0316146112315760405162461bcd60e51b815260206004820152602960248201527f4552433732313a207472616e73666572206f6620746f6b656e2074686174206960448201526839903737ba1037bbb760b91b60648201526084016104be565b6001600160a01b0382166112935760405162461bcd60e51b8152602060048201526024808201527f4552433732313a207472616e7366657220746f20746865207a65726f206164646044820152637265737360e01b60648201526084016104be565b61129e600082611062565b6001600160a01b03831660009081526003602052604081208054600192906112c79084906120bd565b90915550506001600160a01b03821660009081526003602052604081208054600192906112f5908490612091565b909155505060008181526002602052604080822080546001600160a01b0319166001600160a01b0386811691821790925591518493918716917fddf252ad1be2c89b69c2b068fc378daa952ba7f163c4a11628f55a4df523b3ef91a4505050565b600780546001600160a01b038381166001600160a01b0319831681179093556040519116919082907f8be0079c531659141344cd1fd0a4f28419497f9722a3daafe3b4186f6b6457e090600090a35050565b610f01828260405180602001604052806000815250611627565b610f0182826040516024016113d8929190611f26565b60408051601f198184030181529190526020810180516001600160e01b031663319af33360e01b17905261165a565b610f01828260405160240161141d929190611f7e565b60408051601f198184030181529190526020810180516001600160e01b03166309710a9d60e41b17905261165a565b610f018282604051602401611462929190611f50565b60408051601f198184030181529190526020810180516001600160e01b0316634b5c427760e01b17905261165a565b61149a82611045565b6114fd5760405162461bcd60e51b815260206004820152602e60248201527f45524337323155524953746f726167653a2055524920736574206f66206e6f6e60448201526d32bc34b9ba32b73a103a37b5b2b760911b60648201526084016104be565b600082815260066020908152604090912082516105f4928401906119d6565b6115278484846111b6565b6115338484848461167b565b610c545760405162461bcd60e51b81526004016104be90611fa0565b606061155a82611045565b6115be5760405162461bcd60e51b815260206004820152602f60248201527f4552433732314d657461646174613a2055524920717565727920666f72206e6f60448201526e3732bc34b9ba32b73a103a37b5b2b760891b60648201526084016104be565b60006115d560408051602081019091526000815290565b905060008151116115f55760405180602001604052806000815250611620565b806115ff84611788565b604051602001611610929190611d21565b6040516020818303038152906040525b9392505050565b61163183836118a3565b61163e600084848461167b565b6105f45760405162461bcd60e51b81526004016104be90611fa0565b80516a636f6e736f6c652e6c6f67602083016000808483855afa5050505050565b60006001600160a01b0384163b1561177d57604051630a85bd0160e11b81526001600160a01b0385169063150b7a02906116bf903390899088908890600401611e63565b602060405180830381600087803b1580156116d957600080fd5b505af1925050508015611709575060408051601f3d908101601f1916820190925261170691810190611c7b565b60015b611763573d808015611737576040519150601f19603f3d011682016040523d82523d6000602084013e61173c565b606091505b50805161175b5760405162461bcd60e51b81526004016104be90611fa0565b805181602001fd5b6001600160e01b031916630a85bd0160e11b149050610dca565b506001949350505050565b6060816117ad57506040805180820190915260018152600360fc1b60208201526103bf565b8160005b81156117d757806117c18161213b565b91506117d09050600a836120a9565b91506117b1565b60008167ffffffffffffffff81111561180057634e487b7160e01b600052604160045260246000fd5b6040519080825280601f01601f19166020018201604052801561182a576020820181803683370190505b5090505b8415610dca5761183f6001836120bd565b915061184c600a86612156565b611857906030612091565b60f81b81838151811061187a57634e487b7160e01b600052603260045260246000fd5b60200101906001600160f81b031916908160001a90535061189c600a866120a9565b945061182e565b6001600160a01b0382166118f95760405162461bcd60e51b815260206004820181905260248201527f4552433732313a206d696e7420746f20746865207a65726f206164647265737360448201526064016104be565b61190281611045565b1561194f5760405162461bcd60e51b815260206004820152601c60248201527f4552433732313a20746f6b656e20616c7265616479206d696e7465640000000060448201526064016104be565b6001600160a01b0382166000908152600360205260408120805460019290611978908490612091565b909155505060008181526002602052604080822080546001600160a01b0319166001600160a01b03861690811790915590518392907fddf252ad1be2c89b69c2b068fc378daa952ba7f163c4a11628f55a4df523b3ef908290a45050565b8280546119e290612100565b90600052602060002090601f016020900481019282611a045760008555611a4a565b82601f10611a1d57805160ff1916838001178555611a4a565b82800160010185558215611a4a579182015b82811115611a4a578251825591602001919060010190611a2f565b50611a56929150611a5a565b5090565b5b80821115611a565760008155600101611a5b565b600067ffffffffffffffff80841115611a8a57611a8a612196565b604051601f8501601f19908116603f01168101908282118183101715611ab257611ab2612196565b81604052809350858152868686011115611acb57600080fd5b858560208301376000602087830101525050509392505050565b80356001600160a01b03811681146103bf57600080fd5b600060208284031215611b0d578081fd5b61162082611ae5565b60008060408385031215611b28578081fd5b611b3183611ae5565b9150611b3f60208401611ae5565b90509250929050565b600080600060608486031215611b5c578081fd5b611b6584611ae5565b9250611b7360208501611ae5565b9150604084013590509250925092565b60008060008060808587031215611b98578081fd5b611ba185611ae5565b9350611baf60208601611ae5565b925060408501359150606085013567ffffffffffffffff811115611bd1578182fd5b8501601f81018713611be1578182fd5b611bf087823560208401611a6f565b91505092959194509250565b60008060408385031215611c0e578182fd5b611c1783611ae5565b915060208301358015158114611c2b578182fd5b809150509250929050565b60008060408385031215611c48578182fd5b611c5183611ae5565b946020939093013593505050565b600060208284031215611c70578081fd5b8135611620816121ac565b600060208284031215611c8c578081fd5b8151611620816121ac565b600060208284031215611ca8578081fd5b813567ffffffffffffffff811115611cbe578182fd5b8201601f81018413611cce578182fd5b610dca84823560208401611a6f565b600060208284031215611cee578081fd5b5035919050565b60008151808452611d0d8160208601602086016120d4565b601f01601f19169290920160200192915050565b60008351611d338184602088016120d4565b835190830190611d478183602088016120d4565b01949350505050565b683d913730b6b2911d1160b91b8152681059dbdc984813919560ba1b60098201527f222c20226465736372697074696f6e223a224120766964656f2066657369766160128201527f6c204e667421222c202261747472696275746573223a22222c2022696d616765603282015262111d1160e91b60528201528151600090611ddf8160558501602087016120d4565b61227d60f01b6055939091019283015250605701919050565b60007f68747470733a2f2f6f70656e7365612d6372656174757265732d6170692e686582527f726f6b756170702e636f6d2f6170692f63726561747572652f0000000000000060208301528251611e568160398501602087016120d4565b9190910160390192915050565b6001600160a01b0385811682528416602082015260408101839052608060608201819052600090611e9690830184611cf5565b9695505050505050565b60006020808301818452808551808352604092508286019150828160051b870101848801865b83811015611f0557888303603f19018552815180518452870151878401879052611ef287850182611cf5565b9588019593505090860190600101611ec6565b509098975050505050505050565b6000602082526116206020830184611cf5565b600060408252611f396040830185611cf5565b905060018060a01b03831660208301529392505050565b600060408252611f636040830185611cf5565b8281036020840152611f758185611cf5565b95945050505050565b600060408252611f916040830185611cf5565b90508260208301529392505050565b60208082526032908201527f4552433732313a207472616e7366657220746f206e6f6e20455243373231526560408201527131b2b4bb32b91034b6b83632b6b2b73a32b960711b606082015260800190565b6020808252818101527f4f776e61626c653a2063616c6c6572206973206e6f7420746865206f776e6572604082015260600190565b60208082526031908201527f4552433732313a207472616e736665722063616c6c6572206973206e6f74206f6040820152701ddb995c881b9bdc88185c1c1c9bdd9959607a1b606082015260800190565b600083825260406020830152610dca6040830184611cf5565b600082198211156120a4576120a461216a565b500190565b6000826120b8576120b8612180565b500490565b6000828210156120cf576120cf61216a565b500390565b60005b838110156120ef5781810151838201526020016120d7565b83811115610c545750506000910152565b600181811c9082168061211457607f821691505b6020821081141561213557634e487b7160e01b600052602260045260246000fd5b50919050565b600060001982141561214f5761214f61216a565b5060010190565b60008261216557612165612180565b500690565b634e487b7160e01b600052601160045260246000fd5b634e487b7160e01b600052601260045260246000fd5b634e487b7160e01b600052604160045260246000fd5b6001600160e01b031981168114610f9d57600080fdfea26469706673582212207d2c8038b02af0106e3c8484114ed2cea580e64adfbea930d3925c37fb25cc0164736f6c63430008030033",
  "linkReferences": {},
  "deployedLinkReferences": {}
}